:020000040000FA
:040000008A011A282F
:0800080000000900831681309D
:1000100081003F3085000030860000308700FF30CF
:1000200088000730890006309F0083128601FF3068
:10003000870008000620831203130030A200A300EB
:10004000081A202808080F39A000A40085202208DB
:10005000860007105D2007140030A400081A2E281F
:1000600008080F39A100A4008A2022088600071082
:100070005D2007140030A400081A3C28081B5528EE
:10008000030120072107A800A40080207320220874
:10009000860007106A2007142308860087106A204C
:1000A0008714081A47285D20202821082002031CF5
:1000B000EA28A800A400802046288030A50040300F
:1000C000A6004030A700A70B6328A60B6128A50B4C
:1000D0005F2808000230A700FF30A600A60B6E289C
:1000E000A70B6C2808000530A5006430A600FF307F
:1000F000A700A70B7928A60B7728A50B7528080061
:100100000A3028020318DC208F280A302002031846
:10011000DF208F280A3021020318DF208F280030CB
:1001200024020319F528013024020319F8280230AB
:1001300024020319FB28033024020319FE2804308B
:100140002402031901290530240203190429063069
:100150002402031907290730240203190A29083049
:10016000240203190D2909302402031910290A3029
:1001700024020319F5280B3024020319F8280C3047
:1001800024020319FB280D3024020319FE280E3027
:100190002402031901290F30240203190429103005
:1001A0002402031907291130240203190A291230E5
:1001B000240203190D2908000630A30008003C3072
:1001C000A5007930860007106A2007146A20A50B65
:1001D000E1281B283C30A5007930860007106A20F2
:1001E00007146A20A50BEC281B283F30A200132916
:1001F0000630A20013295B30A20013294F30A20061
:1002000013296630A20013296D30A20013297D3016
:10021000A20013290730A20013297F30A20013295E
:080220006F30A2001329080051
:02400E00313F40
:00000001FF
