:020000040000FA
:040000008A011A292E
:08000800A0000308A100830120
:100010000A08A2008A010408A3000B19A40A0B1104
:10002000833081002308840022088A00210883008D
:100030002008090082074D3461346E3465346A3417
:100040006F3420346434653420344D342E342034FD
:10005000523441344D34323449344D343234203406
:10006000453451345534493450344F3420343134CC
:100070002034203420344434693472346534633499
:10008000633469346F346E343A342034303430346D
:100090002034203420344434613474346F343A349E
:1000A0003034783420342034203443346134723492
:1000B0002E34203420343034313432343334343438
:1000C00035343634373438343934413442344334B7
:1000D0004434453446346734683429088207003490
:1000E000013402340334043405340634073408344C
:1000F00009340A340B340C340D340E340F341034FC
:020100001134B8
:10020000FF30850083168230810010308500003079
:10021000860000308700F8308800033089000630FF
:100220009F00831283308100A0308B0086018701FC
:10023000880108000021C0279C212F21A3218701CC
:100240004521562174216921A600A70056218C2141
:10025000B021870A12300706031D20291F294030CC
:10026000A800A901870128081A2086008512AA2162
:100270008511AA218515AA218516AA21870AA80A0F
:1002800010300706031D332908008316FF3086004F
:1002900083128512AA210511AA210608A600A7002B
:1002A000AA000515AA218516AA2108000F30A60567
:1002B00061213730A607F030A705A70E3030A70719
:1002C00008000310F6302607031808000730A602BE
:1002D00008004030A800A90128081A202A0603199E
:1002E0006D28A80AA90A6C2983160030860083129B
:1002F0008510C7308600D227851427088600D227AC
:1003000026088600D2278510CF308600D227851494
:100310002A088600D2270800831600308600831240
:1003200085108D308600D227851427088600D227B5
:1003300026088600D2270800A801DF271030A80071
:10034000F027BD2108002030A800DF273030A800AA
:10035000F0270800A40101302406031DAB29080082
:10036000A401A501FA302406031DB229A401A50A9F
:100370000A302506031DB2290800A401A501FA30A0
:100380002406031DBF29A401A50A14302506031D58
:04039000BF29080079
:100F8000851038308600D2270C308600D2270130F9
:100F90008600D22706308600D22780308600D227EE
:100FA000051408000510A40101302406031DD42FE8
:100FB0000514A40114302406031DDA2F080085103F
:100FC00080308600D2278514A90128081A208600BF
:100FD000D227A80AA90A10302906031DE52F080008
:100FE0008510C0308600D2278514A90128081A2050
:100FF0008600D227A80AA90A10302906031DF62F59
:021000000800E6
:02400E00313F40
:00000001FF
