:020000040000FA
:040000008A011A282F
:0800080000000900831681309D
:1000100081003F3085000030860000308700FF30CF
:1000200088000730890006309F0083128601FF3068
:10003000870008000620831203130030A200A300EB
:100040001621081A202808080F39A000A4008720CC
:100050002208860007105F2007140030A400242126
:10006000081A2F2808080F39A100A4008C202208A4
:10007000860007105F2007140030A400081A3E28ED
:10008000081B5728030120072107A800A40082208D
:1000900075202208860007106C20071423088600AC
:1000A00087106C208714081A49285F20202821080F
:1000B0002002031CEC28A800A400822048288030DD
:1000C000A5004030A6004030A700A70B6528A60B6E
:1000D0006328A50B612808000230A700FF30A600A6
:1000E000A60B7028A70B6E2808000530A500643009
:1000F000A600FF30A700A70B7B28A60B7928A50B2D
:10010000772808000A3028020318DE2091280A30D8
:1001100020020318E12091280A3021020318E1206F
:100120009128003024020319F72801302402031912
:10013000FA28023024020319FD280330240203198F
:10014000002904302402031903290530240203196D
:10015000062906302402031909290730240203194D
:100160000C290830240203190F290930240203192D
:1001700012290A3024020319F7280B30240203192C
:10018000FA280C3024020319FD280D30240203192B
:1001900000290E302402031903290F302402031909
:1001A00006291030240203190929113024020319E9
:1001B0000C291230240203190F2908000630A3006D
:1001C00008003C30A5007930860007106C20071429
:1001D0006C20A50BE3281B283C30A5007930860055
:1001E00007106C2007146C20A50BEE281B283F304D
:1001F000A20015290630A20015295B30A20015299E
:100200004F30A20015296630A20015296D30A200DA
:1002100015297D30A20015290730A20015297F304D
:10022000A20015296F30A2001529080008088400D3
:100230000F308405081A1A290800080884000F30B6
:100240008405081A21290800080884000F30840555
:06025000081A282908002D
:02400E00313F40
:00000001FF
